{
  "_format": "hh-sol-artifact-1",
  "contractName": "IndexToken",
  "sourceName": "contracts/IndexToken.sol",
  "abi": [
    {
      "inputs": [
        {
          "internalType": "string",
          "name": "name_",
          "type": "string"
        },
        {
          "internalType": "string",
          "name": "symbol_",
          "type": "string"
        }
      ],
      "stateMutability": "nonpayable",
      "type": "constructor"
    },
    {
      "inputs": [
        {
          "internalType": "address",
          "name": "spender",
          "type": "address"
        },
        {
          "internalType": "uint256",
          "name": "allowance",
          "type": "uint256"
        },
        {
          "internalType": "uint256",
          "name": "needed",
          "type": "uint256"
        }
      ],
      "name": "ERC20InsufficientAllowance",
      "type": "error"
    },
    {
      "inputs": [
        {
          "internalType": "address",
          "name": "sender",
          "type": "address"
        },
        {
          "internalType": "uint256",
          "name": "balance",
          "type": "uint256"
        },
        {
          "internalType": "uint256",
          "name": "needed",
          "type": "uint256"
        }
      ],
      "name": "ERC20InsufficientBalance",
      "type": "error"
    },
    {
      "inputs": [
        {
          "internalType": "address",
          "name": "approver",
          "type": "address"
        }
      ],
      "name": "ERC20InvalidApprover",
      "type": "error"
    },
    {
      "inputs": [
        {
          "internalType": "address",
          "name": "receiver",
          "type": "address"
        }
      ],
      "name": "ERC20InvalidReceiver",
      "type": "error"
    },
    {
      "inputs": [
        {
          "internalType": "address",
          "name": "sender",
          "type": "address"
        }
      ],
      "name": "ERC20InvalidSender",
      "type": "error"
    },
    {
      "inputs": [
        {
          "internalType": "address",
          "name": "spender",
          "type": "address"
        }
      ],
      "name": "ERC20InvalidSpender",
      "type": "error"
    },
    {
      "inputs": [
        {
          "internalType": "address",
          "name": "owner",
          "type": "address"
        }
      ],
      "name": "OwnableInvalidOwner",
      "type": "error"
    },
    {
      "inputs": [
        {
          "internalType": "address",
          "name": "account",
          "type": "address"
        }
      ],
      "name": "OwnableUnauthorizedAccount",
      "type": "error"
    },
    {
      "anonymous": false,
      "inputs": [
        {
          "indexed": true,
          "internalType": "address",
          "name": "owner",
          "type": "address"
        },
        {
          "indexed": true,
          "internalType": "address",
          "name": "spender",
          "type": "address"
        },
        {
          "indexed": false,
          "internalType": "uint256",
          "name": "value",
          "type": "uint256"
        }
      ],
      "name": "Approval",
      "type": "event"
    },
    {
      "anonymous": false,
      "inputs": [],
      "name": "AssetListUpdated",
      "type": "event"
    },
    {
      "anonymous": false,
      "inputs": [
        {
          "indexed": false,
          "internalType": "uint256",
          "name": "totalMarketCap",
          "type": "uint256"
        },
        {
          "indexed": false,
          "internalType": "uint256",
          "name": "indexPrice",
          "type": "uint256"
        },
        {
          "indexed": false,
          "internalType": "uint256",
          "name": "divisor",
          "type": "uint256"
        }
      ],
      "name": "IndexInitialized",
      "type": "event"
    },
    {
      "anonymous": false,
      "inputs": [
        {
          "indexed": false,
          "internalType": "uint256",
          "name": "newTotalMarketCap",
          "type": "uint256"
        },
        {
          "indexed": false,
          "internalType": "uint256",
          "name": "newIndexPrice",
          "type": "uint256"
        },
        {
          "indexed": false,
          "internalType": "uint256",
          "name": "divisor",
          "type": "uint256"
        }
      ],
      "name": "MarketCapUpdated",
      "type": "event"
    },
    {
      "anonymous": false,
      "inputs": [
        {
          "indexed": true,
          "internalType": "address",
          "name": "previousOwner",
          "type": "address"
        },
        {
          "indexed": true,
          "internalType": "address",
          "name": "newOwner",
          "type": "address"
        }
      ],
      "name": "OwnershipTransferred",
      "type": "event"
    },
    {
      "anonymous": false,
      "inputs": [
        {
          "indexed": false,
          "internalType": "uint256",
          "name": "newTotalMarketCap",
          "type": "uint256"
        },
        {
          "indexed": false,
          "internalType": "uint256",
          "name": "newIndexPrice",
          "type": "uint256"
        },
        {
          "indexed": false,
          "internalType": "uint256",
          "name": "newDivisor",
          "type": "uint256"
        }
      ],
      "name": "Rebalanced",
      "type": "event"
    },
    {
      "anonymous": false,
      "inputs": [
        {
          "indexed": true,
          "internalType": "address",
          "name": "from",
          "type": "address"
        },
        {
          "indexed": true,
          "internalType": "address",
          "name": "to",
          "type": "address"
        },
        {
          "indexed": false,
          "internalType": "uint256",
          "name": "value",
          "type": "uint256"
        }
      ],
      "name": "Transfer",
      "type": "event"
    },
    {
      "inputs": [
        {
          "internalType": "address",
          "name": "owner",
          "type": "address"
        },
        {
          "internalType": "address",
          "name": "spender",
          "type": "address"
        }
      ],
      "name": "allowance",
      "outputs": [
        {
          "internalType": "uint256",
          "name": "",
          "type": "uint256"
        }
      ],
      "stateMutability": "view",
      "type": "function"
    },
    {
      "inputs": [
        {
          "internalType": "address",
          "name": "spender",
          "type": "address"
        },
        {
          "internalType": "uint256",
          "name": "value",
          "type": "uint256"
        }
      ],
      "name": "approve",
      "outputs": [
        {
          "internalType": "bool",
          "name": "",
          "type": "bool"
        }
      ],
      "stateMutability": "nonpayable",
      "type": "function"
    },
    {
      "inputs": [],
      "name": "assetCount",
      "outputs": [
        {
          "internalType": "uint256",
          "name": "",
          "type": "uint256"
        }
      ],
      "stateMutability": "view",
      "type": "function"
    },
    {
      "inputs": [
        {
          "internalType": "uint256",
          "name": "",
          "type": "uint256"
        }
      ],
      "name": "assets",
      "outputs": [
        {
          "internalType": "address",
          "name": "token",
          "type": "address"
        },
        {
          "internalType": "uint256",
          "name": "weightBps",
          "type": "uint256"
        },
        {
          "internalType": "bool",
          "name": "active",
          "type": "bool"
        }
      ],
      "stateMutability": "view",
      "type": "function"
    },
    {
      "inputs": [
        {
          "internalType": "address",
          "name": "account",
          "type": "address"
        }
      ],
      "name": "balanceOf",
      "outputs": [
        {
          "internalType": "uint256",
          "name": "",
          "type": "uint256"
        }
      ],
      "stateMutability": "view",
      "type": "function"
    },
    {
      "inputs": [],
      "name": "decimals",
      "outputs": [
        {
          "internalType": "uint8",
          "name": "",
          "type": "uint8"
        }
      ],
      "stateMutability": "view",
      "type": "function"
    },
    {
      "inputs": [],
      "name": "divisor",
      "outputs": [
        {
          "internalType": "uint256",
          "name": "",
          "type": "uint256"
        }
      ],
      "stateMutability": "view",
      "type": "function"
    },
    {
      "inputs": [],
      "name": "getAssets",
      "outputs": [
        {
          "components": [
            {
              "internalType": "address",
              "name": "token",
              "type": "address"
            },
            {
              "internalType": "uint256",
              "name": "weightBps",
              "type": "uint256"
            },
            {
              "internalType": "bool",
              "name": "active",
              "type": "bool"
            }
          ],
          "internalType": "struct IndexToken.Asset[]",
          "name": "",
          "type": "tuple[]"
        }
      ],
      "stateMutability": "view",
      "type": "function"
    },
    {
      "inputs": [],
      "name": "getIndexPrice",
      "outputs": [
        {
          "internalType": "uint256",
          "name": "",
          "type": "uint256"
        }
      ],
      "stateMutability": "view",
      "type": "function"
    },
    {
      "inputs": [],
      "name": "indexPrice",
      "outputs": [
        {
          "internalType": "uint256",
          "name": "",
          "type": "uint256"
        }
      ],
      "stateMutability": "view",
      "type": "function"
    },
    {
      "inputs": [
        {
          "components": [
            {
              "internalType": "address",
              "name": "token",
              "type": "address"
            },
            {
              "internalType": "uint256",
              "name": "weightBps",
              "type": "uint256"
            },
            {
              "internalType": "bool",
              "name": "active",
              "type": "bool"
            }
          ],
          "internalType": "struct IndexToken.Asset[]",
          "name": "_assets",
          "type": "tuple[]"
        },
        {
          "internalType": "uint256",
          "name": "totalMarketCap_",
          "type": "uint256"
        },
        {
          "internalType": "uint256",
          "name": "indexPrice_",
          "type": "uint256"
        }
      ],
      "name": "initializeIndex",
      "outputs": [],
      "stateMutability": "nonpayable",
      "type": "function"
    },
    {
      "inputs": [],
      "name": "name",
      "outputs": [
        {
          "internalType": "string",
          "name": "",
          "type": "string"
        }
      ],
      "stateMutability": "view",
      "type": "function"
    },
    {
      "inputs": [],
      "name": "owner",
      "outputs": [
        {
          "internalType": "address",
          "name": "",
          "type": "address"
        }
      ],
      "stateMutability": "view",
      "type": "function"
    },
    {
      "inputs": [
        {
          "components": [
            {
              "internalType": "address",
              "name": "token",
              "type": "address"
            },
            {
              "internalType": "uint256",
              "name": "weightBps",
              "type": "uint256"
            },
            {
              "internalType": "bool",
              "name": "active",
              "type": "bool"
            }
          ],
          "internalType": "struct IndexToken.Asset[]",
          "name": "_newAssets",
          "type": "tuple[]"
        },
        {
          "internalType": "uint256",
          "name": "newTotalMarketCap_",
          "type": "uint256"
        },
        {
          "internalType": "uint256",
          "name": "newIndexPrice_",
          "type": "uint256"
        }
      ],
      "name": "rebalanceWithConstituentChange",
      "outputs": [],
      "stateMutability": "nonpayable",
      "type": "function"
    },
    {
      "inputs": [],
      "name": "renounceOwnership",
      "outputs": [],
      "stateMutability": "nonpayable",
      "type": "function"
    },
    {
      "inputs": [],
      "name": "symbol",
      "outputs": [
        {
          "internalType": "string",
          "name": "",
          "type": "string"
        }
      ],
      "stateMutability": "view",
      "type": "function"
    },
    {
      "inputs": [],
      "name": "totalMarketCap",
      "outputs": [
        {
          "internalType": "uint256",
          "name": "",
          "type": "uint256"
        }
      ],
      "stateMutability": "view",
      "type": "function"
    },
    {
      "inputs": [],
      "name": "totalSupply",
      "outputs": [
        {
          "internalType": "uint256",
          "name": "",
          "type": "uint256"
        }
      ],
      "stateMutability": "view",
      "type": "function"
    },
    {
      "inputs": [
        {
          "internalType": "address",
          "name": "to",
          "type": "address"
        },
        {
          "internalType": "uint256",
          "name": "value",
          "type": "uint256"
        }
      ],
      "name": "transfer",
      "outputs": [
        {
          "internalType": "bool",
          "name": "",
          "type": "bool"
        }
      ],
      "stateMutability": "nonpayable",
      "type": "function"
    },
    {
      "inputs": [
        {
          "internalType": "address",
          "name": "from",
          "type": "address"
        },
        {
          "internalType": "address",
          "name": "to",
          "type": "address"
        },
        {
          "internalType": "uint256",
          "name": "value",
          "type": "uint256"
        }
      ],
      "name": "transferFrom",
      "outputs": [
        {
          "internalType": "bool",
          "name": "",
          "type": "bool"
        }
      ],
      "stateMutability": "nonpayable",
      "type": "function"
    },
    {
      "inputs": [
        {
          "internalType": "address",
          "name": "newOwner",
          "type": "address"
        }
      ],
      "name": "transferOwnership",
      "outputs": [],
      "stateMutability": "nonpayable",
      "type": "function"
    },
    {
      "inputs": [
        {
          "internalType": "uint256",
          "name": "newTotalMarketCap_",
          "type": "uint256"
        },
        {
          "internalType": "uint256",
          "name": "newIndexPrice_",
          "type": "uint256"
        }
      ],
      "name": "updateMarketCapSameConstituents",
      "outputs": [],
      "stateMutability": "nonpayable",
      "type": "function"
    }
  ],
  "bytecode": "0x60806040523480156200001157600080fd5b5060405162002f8d38038062002f8d833981810160405281019062000037919062000348565b33828281600390816200004b919062000618565b5080600490816200005d919062000618565b505050600073ffffffffffffffffffffffffffffffffffffffff168173ffffffffffffffffffffffffffffffffffffffff1603620000d55760006040517f1e4fbdf7000000000000000000000000000000000000000000000000000000008152600401620000cc919062000744565b60405180910390fd5b620000e681620000ef60201b60201c565b50505062000761565b6000600560009054906101000a900473ffffffffffffffffffffffffffffffffffffffff16905081600560006101000a81548173ffffffffffffffffffffffffffffffffffffffff021916908373ffffffffffffffffffffffffffffffffffffffff1602179055508173ffffffffffffffffffffffffffffffffffffffff168173ffffffffffffffffffffffffffffffffffffffff167f8be0079c531659141344cd1fd0a4f28419497f9722a3daafe3b4186f6b6457e060405160405180910390a35050565b6000604051905090565b600080fd5b600080fd5b600080fd5b600080fd5b6000601f19601f8301169050919050565b7f4e487b7100000000000000000000000000000000000000000000000000000000600052604160045260246000fd5b6200021e82620001d3565b810181811067ffffffffffffffff8211171562000240576200023f620001e4565b5b80604052505050565b600062000255620001b5565b905062000263828262000213565b919050565b600067ffffffffffffffff821115620002865762000285620001e4565b5b6200029182620001d3565b9050602081019050919050565b60005b83811015620002be578082015181840152602081019050620002a1565b60008484015250505050565b6000620002e1620002db8462000268565b62000249565b9050828152602081018484840111156200030057620002ff620001ce565b5b6200030d8482856200029e565b509392505050565b600082601f8301126200032d576200032c620001c9565b5b81516200033f848260208601620002ca565b91505092915050565b60008060408385031215620003625762000361620001bf565b5b600083015167ffffffffffffffff811115620003835762000382620001c4565b5b620003918582860162000315565b925050602083015167ffffffffffffffff811115620003b557620003b4620001c4565b5b620003c38582860162000315565b9150509250929050565b600081519050919050565b7f4e487b7100000000000000000000000000000000000000000000000000000000600052602260045260246000fd5b600060028204905060018216806200042057607f821691505b602082108103620004365762000435620003d8565b5b50919050565b60008190508160005260206000209050919050565b60006020601f8301049050919050565b600082821b905092915050565b600060088302620004a07fffffffffffffffffffffffffffffffffffffffffffffffffffffffffffffffff8262000461565b620004ac868362000461565b95508019841693508086168417925050509392505050565b6000819050919050565b6000819050919050565b6000620004f9620004f3620004ed84620004c4565b620004ce565b620004c4565b9050919050565b6000819050919050565b6200051583620004d8565b6200052d620005248262000500565b8484546200046e565b825550505050565b600090565b6200054462000535565b620005518184846200050a565b505050565b5b8181101562000579576200056d6000826200053a565b60018101905062000557565b5050565b601f821115620005c85762000592816200043c565b6200059d8462000451565b81016020851015620005ad578190505b620005c5620005bc8562000451565b83018262000556565b50505b505050565b600082821c905092915050565b6000620005ed60001984600802620005cd565b1980831691505092915050565b6000620006088383620005da565b9150826002028217905092915050565b6200062382620003cd565b67ffffffffffffffff8111156200063f576200063e620001e4565b5b6200064b825462000407565b620006588282856200057d565b600060209050601f8311600181146200069057600084156200067b578287015190505b620006878582620005fa565b865550620006f7565b601f198416620006a0866200043c565b60005b82811015620006ca57848901518255600182019150602085019450602081019050620006a3565b86831015620006ea5784890151620006e6601f891682620005da565b8355505b6001600288020188555050505b505050505050565b600073ffffffffffffffffffffffffffffffffffffffff82169050919050565b60006200072c82620006ff565b9050919050565b6200073e816200071f565b82525050565b60006020820190506200075b600083018462000733565b92915050565b61281c80620007716000396000f3fe608060405234801561001057600080fd5b50600436106101425760003560e01c8063715018a6116100b8578063cf35bdd01161007c578063cf35bdd014610359578063d6fb2bdb1461038b578063dd62ed3e146103a7578063eafe7a74146103d7578063f2fde38b146103f5578063f97f95071461041157610142565b8063715018a6146102c55780638da5cb5b146102cf57806395d89b41146102ed578063a9059cbb1461030b578063bbffa2d31461033b57610142565b806323b872dd1161010a57806323b872dd146101ef578063313ce5671461021f5780633aff92ea1461023d57806358c0994a1461025957806367e4ac2c1461027757806370a082311461029557610142565b806306fdde0314610147578063095ea7b31461016557806310bace8c1461019557806318160ddd146101b35780631f2dc5ef146101d1575b600080fd5b61014f61042d565b60405161015c9190611b5d565b60405180910390f35b61017f600480360381019061017a9190611c27565b6104bf565b60405161018c9190611c82565b60405180910390f35b61019d6104e2565b6040516101aa9190611cac565b60405180910390f35b6101bb6104e8565b6040516101c89190611cac565b60405180910390f35b6101d96104f2565b6040516101e69190611cac565b60405180910390f35b61020960048036038101906102049190611cc7565b6104f8565b6040516102169190611c82565b60405180910390f35b610227610527565b6040516102349190611d36565b60405180910390f35b61025760048036038101906102529190611d51565b610530565b005b610261610656565b60405161026e9190611cac565b60405180910390f35b61027f610660565b60405161028c9190611eaf565b60405180910390f35b6102af60048036038101906102aa9190611ed1565b61073a565b6040516102bc9190611cac565b60405180910390f35b6102cd610782565b005b6102d7610796565b6040516102e49190611f0d565b60405180910390f35b6102f56107c0565b6040516103029190611b5d565b60405180910390f35b61032560048036038101906103209190611c27565b610852565b6040516103329190611c82565b60405180910390f35b610343610875565b6040516103509190611cac565b60405180910390f35b610373600480360381019061036e9190611f28565b61087b565b60405161038293929190611f55565b60405180910390f35b6103a560048036038101906103a09190612169565b6108e2565b005b6103c160048036038101906103bc91906121d8565b610d3c565b6040516103ce9190611cac565b60405180910390f35b6103df610dc3565b6040516103ec9190611cac565b60405180910390f35b61040f600480360381019061040a9190611ed1565b610dd0565b005b61042b60048036038101906104269190612169565b610e56565b005b60606003805461043c90612247565b80601f016020809104026020016040519081016040528092919081815260200182805461046890612247565b80156104b55780601f1061048a576101008083540402835291602001916104b5565b820191906000526020600020905b81548152906001019060200180831161049857829003601f168201915b5050505050905090565b6000806104ca6112e1565b90506104d78185856112e9565b600191505092915050565b60085481565b6000600254905090565b60075481565b6000806105036112e1565b90506105108582856112fb565b61051b858585611390565b60019150509392505050565b60006012905090565b610538611484565b60006007540361057d576040517f08c379a0000000000000000000000000000000000000000000000000000000008152600401610574906122c4565b60405180910390fd5b600081116105c0576040517f08c379a00000000000000000000000000000000000000000000000000000000081526004016105b790612330565b60405180910390fd5b60008211610603576040517f08c379a00000000000000000000000000000000000000000000000000000000081526004016105fa9061239c565b60405180910390fd5b81600981905550806008819055507f159df8c707fcc3ee755c4324fda414a17c525bc04d54b422aed9abe2ae2846c060095460085460075460405161064a939291906123bc565b60405180910390a15050565b6000600854905090565b60606006805480602002602001604051908101604052809291908181526020016000905b8282101561073157838290600052602060002090600302016040518060600160405290816000820160009054906101000a900473ffffffffffffffffffffffffffffffffffffffff1673ffffffffffffffffffffffffffffffffffffffff1673ffffffffffffffffffffffffffffffffffffffff168152602001600182015481526020016002820160009054906101000a900460ff16151515158152505081526020019060010190610684565b50505050905090565b60008060008373ffffffffffffffffffffffffffffffffffffffff1673ffffffffffffffffffffffffffffffffffffffff168152602001908152602001600020549050919050565b61078a611484565b610794600061150b565b565b6000600560009054906101000a900473ffffffffffffffffffffffffffffffffffffffff16905090565b6060600480546107cf90612247565b80601f01602080910402602001604051908101604052809291908181526020018280546107fb90612247565b80156108485780601f1061081d57610100808354040283529160200191610848565b820191906000526020600020905b81548152906001019060200180831161082b57829003601f168201915b5050505050905090565b60008061085d6112e1565b905061086a818585611390565b600191505092915050565b60095481565b6006818154811061088b57600080fd5b90600052602060002090600302016000915090508060000160009054906101000a900473ffffffffffffffffffffffffffffffffffffffff16908060010154908060020160009054906101000a900460ff16905083565b6108ea611484565b60006007540361092f576040517f08c379a0000000000000000000000000000000000000000000000000000000008152600401610926906122c4565b60405180910390fd5b6000835111610973576040517f08c379a000000000000000000000000000000000000000000000000000000000815260040161096a9061243f565b60405180910390fd5b600082116109b6576040517f08c379a00000000000000000000000000000000000000000000000000000000081526004016109ad9061239c565b60405180910390fd5b600081116109f9576040517f08c379a00000000000000000000000000000000000000000000000000000000081526004016109f090612330565b60405180910390fd5b60066000610a079190611a4f565b600080600090505b8451811015610c4d57600073ffffffffffffffffffffffffffffffffffffffff16858281518110610a4357610a4261245f565b5b60200260200101516000015173ffffffffffffffffffffffffffffffffffffffff1603610aa5576040517f08c379a0000000000000000000000000000000000000000000000000000000008152600401610a9c906124da565b60405180910390fd5b6000858281518110610aba57610ab961245f565b5b60200260200101516020015111610b06576040517f08c379a0000000000000000000000000000000000000000000000000000000008152600401610afd90612546565b60405180910390fd5b60066040518060600160405280878481518110610b2657610b2561245f565b5b60200260200101516000015173ffffffffffffffffffffffffffffffffffffffff168152602001878481518110610b6057610b5f61245f565b5b602002602001015160200151815260200160011515815250908060018154018082558091505060019003906000526020600020906003020160009091909190915060008201518160000160006101000a81548173ffffffffffffffffffffffffffffffffffffffff021916908373ffffffffffffffffffffffffffffffffffffffff1602179055506020820151816001015560408201518160020160006101000a81548160ff0219169083151502179055505050848181518110610c2757610c2661245f565b5b60200260200101516020015182610c3e9190612595565b91508080600101915050610a0f565b506127108114610c92576040517f08c379a0000000000000000000000000000000000000000000000000000000008152600401610c8990612615565b60405180910390fd5b8260098190555081600881905550600854670de0b6b3a7640000600954610cb99190612635565b610cc391906126a6565b6007819055507fba079c5daa4387520eaa7c7b6cbd7951041218219710296915bc5e7d096b998160405160405180910390a17f83387a3342ff1ebc5e437dc9ae0f98274afda12a11cf547eebec05a3e0b8f8a7600954600854600754604051610d2e939291906123bc565b60405180910390a150505050565b6000600160008473ffffffffffffffffffffffffffffffffffffffff1673ffffffffffffffffffffffffffffffffffffffff16815260200190815260200160002060008373ffffffffffffffffffffffffffffffffffffffff1673ffffffffffffffffffffffffffffffffffffffff16815260200190815260200160002054905092915050565b6000600680549050905090565b610dd8611484565b600073ffffffffffffffffffffffffffffffffffffffff168173ffffffffffffffffffffffffffffffffffffffff1603610e4a5760006040517f1e4fbdf7000000000000000000000000000000000000000000000000000000008152600401610e419190611f0d565b60405180910390fd5b610e538161150b565b50565b610e5e611484565b600060075414610ea3576040517f08c379a0000000000000000000000000000000000000000000000000000000008152600401610e9a90612723565b60405180910390fd5b6000610ead6104e8565b14610eed576040517f08c379a0000000000000000000000000000000000000000000000000000000008152600401610ee49061278f565b60405180910390fd5b6000835111610f31576040517f08c379a0000000000000000000000000000000000000000000000000000000008152600401610f289061243f565b60405180910390fd5b60008111610f74576040517f08c379a0000000000000000000000000000000000000000000000000000000008152600401610f6b90612330565b60405180910390fd5b60008211610fb7576040517f08c379a0000000000000000000000000000000000000000000000000000000008152600401610fae9061239c565b60405180910390fd5b60066000610fc59190611a4f565b600080600090505b845181101561120b57600073ffffffffffffffffffffffffffffffffffffffff168582815181106110015761100061245f565b5b60200260200101516000015173ffffffffffffffffffffffffffffffffffffffff1603611063576040517f08c379a000000000000000000000000000000000000000000000000000000000815260040161105a906124da565b60405180910390fd5b60008582815181106110785761107761245f565b5b602002602001015160200151116110c4576040517f08c379a00000000000000000000000000000000000000000000000000000000081526004016110bb90612546565b60405180910390fd5b600660405180606001604052808784815181106110e4576110e361245f565b5b60200260200101516000015173ffffffffffffffffffffffffffffffffffffffff16815260200187848151811061111e5761111d61245f565b5b602002602001015160200151815260200160011515815250908060018154018082558091505060019003906000526020600020906003020160009091909190915060008201518160000160006101000a81548173ffffffffffffffffffffffffffffffffffffffff021916908373ffffffffffffffffffffffffffffffffffffffff1602179055506020820151816001015560408201518160020160006101000a81548160ff02191690831515021790555050508481815181106111e5576111e461245f565b5b602002602001015160200151826111fc9190612595565b91508080600101915050610fcd565b506127108114611250576040517f08c379a000000000000000000000000000000000000000000000000000000000815260040161124790612615565b60405180910390fd5b8260098190555081600881905550600854670de0b6b3a76400006009546112779190612635565b61128191906126a6565b6007819055507ffede792510057853bd2220a9bd0a5392d08db29df040da5dbf24b16ab6041a026009546008546007546040516112c0939291906123bc565b60405180910390a16112db33683635c9adc5dea000006115d1565b50505050565b600033905090565b6112f68383836001611653565b505050565b60006113078484610d3c565b90507fffffffffffffffffffffffffffffffffffffffffffffffffffffffffffffffff81101561138a578181101561137a578281836040517ffb8f41b2000000000000000000000000000000000000000000000000000000008152600401611371939291906127af565b60405180910390fd5b61138984848484036000611653565b5b50505050565b600073ffffffffffffffffffffffffffffffffffffffff168373ffffffffffffffffffffffffffffffffffffffff16036114025760006040517f96c6fd1e0000000000000000000000000000000000000000000000000000000081526004016113f99190611f0d565b60405180910390fd5b600073ffffffffffffffffffffffffffffffffffffffff168273ffffffffffffffffffffffffffffffffffffffff16036114745760006040517fec442f0500000000000000000000000000000000000000000000000000000000815260040161146b9190611f0d565b60405180910390fd5b61147f83838361182a565b505050565b61148c6112e1565b73ffffffffffffffffffffffffffffffffffffffff166114aa610796565b73ffffffffffffffffffffffffffffffffffffffff1614611509576114cd6112e1565b6040517f118cdaa70000000000000000000000000000000000000000000000000000000081526004016115009190611f0d565b60405180910390fd5b565b6000600560009054906101000a900473ffffffffffffffffffffffffffffffffffffffff16905081600560006101000a81548173ffffffffffffffffffffffffffffffffffffffff021916908373ffffffffffffffffffffffffffffffffffffffff1602179055508173ffffffffffffffffffffffffffffffffffffffff168173ffffffffffffffffffffffffffffffffffffffff167f8be0079c531659141344cd1fd0a4f28419497f9722a3daafe3b4186f6b6457e060405160405180910390a35050565b600073ffffffffffffffffffffffffffffffffffffffff168273ffffffffffffffffffffffffffffffffffffffff16036116435760006040517fec442f0500000000000000000000000000000000000000000000000000000000815260040161163a9190611f0d565b60405180910390fd5b61164f6000838361182a565b5050565b600073ffffffffffffffffffffffffffffffffffffffff168473ffffffffffffffffffffffffffffffffffffffff16036116c55760006040517fe602df050000000000000000000000000000000000000000000000000000000081526004016116bc9190611f0d565b60405180910390fd5b600073ffffffffffffffffffffffffffffffffffffffff168373ffffffffffffffffffffffffffffffffffffffff16036117375760006040517f94280d6200000000000000000000000000000000000000000000000000000000815260040161172e9190611f0d565b60405180910390fd5b81600160008673ffffffffffffffffffffffffffffffffffffffff1673ffffffffffffffffffffffffffffffffffffffff16815260200190815260200160002060008573ffffffffffffffffffffffffffffffffffffffff1673ffffffffffffffffffffffffffffffffffffffff168152602001908152602001600020819055508015611824578273ffffffffffffffffffffffffffffffffffffffff168473ffffffffffffffffffffffffffffffffffffffff167f8c5be1e5ebec7d5bd14f71427d1e84f3dd0314c0f7b2291e5b200ac8c7c3b9258460405161181b9190611cac565b60405180910390a35b50505050565b600073ffffffffffffffffffffffffffffffffffffffff168373ffffffffffffffffffffffffffffffffffffffff160361187c5780600260008282546118709190612595565b9250508190555061194f565b60008060008573ffffffffffffffffffffffffffffffffffffffff1673ffffffffffffffffffffffffffffffffffffffff16815260200190815260200160002054905081811015611908578381836040517fe450d38c0000000000000000000000000000000000000000000000000000000081526004016118ff939291906127af565b60405180910390fd5b8181036000808673ffffffffffffffffffffffffffffffffffffffff1673ffffffffffffffffffffffffffffffffffffffff16815260200190815260200160002081905550505b600073ffffffffffffffffffffffffffffffffffffffff168273ffffffffffffffffffffffffffffffffffffffff160361199857806002600082825403925050819055506119e5565b806000808473ffffffffffffffffffffffffffffffffffffffff1673ffffffffffffffffffffffffffffffffffffffff168152602001908152602001600020600082825401925050819055505b8173ffffffffffffffffffffffffffffffffffffffff168373ffffffffffffffffffffffffffffffffffffffff167fddf252ad1be2c89b69c2b068fc378daa952ba7f163c4a11628f55a4df523b3ef83604051611a429190611cac565b60405180910390a3505050565b5080546000825560030290600052602060002090810190611a709190611a73565b50565b5b80821115611ac957600080820160006101000a81549073ffffffffffffffffffffffffffffffffffffffff021916905560018201600090556002820160006101000a81549060ff021916905550600301611a74565b5090565b600081519050919050565b600082825260208201905092915050565b60005b83811015611b07578082015181840152602081019050611aec565b60008484015250505050565b6000601f19601f8301169050919050565b6000611b2f82611acd565b611b398185611ad8565b9350611b49818560208601611ae9565b611b5281611b13565b840191505092915050565b60006020820190508181036000830152611b778184611b24565b905092915050565b6000604051905090565b600080fd5b600080fd5b600073ffffffffffffffffffffffffffffffffffffffff82169050919050565b6000611bbe82611b93565b9050919050565b611bce81611bb3565b8114611bd957600080fd5b50565b600081359050611beb81611bc5565b92915050565b6000819050919050565b611c0481611bf1565b8114611c0f57600080fd5b50565b600081359050611c2181611bfb565b92915050565b60008060408385031215611c3e57611c3d611b89565b5b6000611c4c85828601611bdc565b9250506020611c5d85828601611c12565b9150509250929050565b60008115159050919050565b611c7c81611c67565b82525050565b6000602082019050611c976000830184611c73565b92915050565b611ca681611bf1565b82525050565b6000602082019050611cc16000830184611c9d565b92915050565b600080600060608486031215611ce057611cdf611b89565b5b6000611cee86828701611bdc565b9350506020611cff86828701611bdc565b9250506040611d1086828701611c12565b9150509250925092565b600060ff82169050919050565b611d3081611d1a565b82525050565b6000602082019050611d4b6000830184611d27565b92915050565b60008060408385031215611d6857611d67611b89565b5b6000611d7685828601611c12565b9250506020611d8785828601611c12565b9150509250929050565b600081519050919050565b600082825260208201905092915050565b6000819050602082019050919050565b611dc681611bb3565b82525050565b611dd581611bf1565b82525050565b611de481611c67565b82525050565b606082016000820151611e006000850182611dbd565b506020820151611e136020850182611dcc565b506040820151611e266040850182611ddb565b50505050565b6000611e388383611dea565b60608301905092915050565b6000602082019050919050565b6000611e5c82611d91565b611e668185611d9c565b9350611e7183611dad565b8060005b83811015611ea2578151611e898882611e2c565b9750611e9483611e44565b925050600181019050611e75565b5085935050505092915050565b60006020820190508181036000830152611ec98184611e51565b905092915050565b600060208284031215611ee757611ee6611b89565b5b6000611ef584828501611bdc565b91505092915050565b611f0781611bb3565b82525050565b6000602082019050611f226000830184611efe565b92915050565b600060208284031215611f3e57611f3d611b89565b5b6000611f4c84828501611c12565b91505092915050565b6000606082019050611f6a6000830186611efe565b611f776020830185611c9d565b611f846040830184611c73565b949350505050565b600080fd5b7f4e487b7100000000000000000000000000000000000000000000000000000000600052604160045260246000fd5b611fc982611b13565b810181811067ffffffffffffffff82111715611fe857611fe7611f91565b5b80604052505050565b6000611ffb611b7f565b90506120078282611fc0565b919050565b600067ffffffffffffffff82111561202757612026611f91565b5b602082029050602081019050919050565b600080fd5b600080fd5b61204b81611c67565b811461205657600080fd5b50565b60008135905061206881612042565b92915050565b6000606082840312156120845761208361203d565b5b61208e6060611ff1565b9050600061209e84828501611bdc565b60008301525060206120b284828501611c12565b60208301525060406120c684828501612059565b60408301525092915050565b60006120e56120e08461200c565b611ff1565b9050808382526020820190506060840283018581111561210857612107612038565b5b835b81811015612131578061211d888261206e565b84526020840193505060608101905061210a565b5050509392505050565b600082601f8301126121505761214f611f8c565b5b81356121608482602086016120d2565b91505092915050565b60008060006060848603121561218257612181611b89565b5b600084013567ffffffffffffffff8111156121a05761219f611b8e565b5b6121ac8682870161213b565b93505060206121bd86828701611c12565b92505060406121ce86828701611c12565b9150509250925092565b600080604083850312156121ef576121ee611b89565b5b60006121fd85828601611bdc565b925050602061220e85828601611bdc565b9150509250929050565b7f4e487b7100000000000000000000000000000000000000000000000000000000600052602260045260246000fd5b6000600282049050600182168061225f57607f821691505b60208210810361227257612271612218565b5b50919050565b7f4e6f7420696e697469616c697a65640000000000000000000000000000000000600082015250565b60006122ae600f83611ad8565b91506122b982612278565b602082019050919050565b600060208201905081810360008301526122dd816122a1565b9050919050565b7f496e6465785072696365207a65726f0000000000000000000000000000000000600082015250565b600061231a600f83611ad8565b9150612325826122e4565b602082019050919050565b600060208201905081810360008301526123498161230d565b9050919050565b7f4d61726b6574436170207a65726f000000000000000000000000000000000000600082015250565b6000612386600e83611ad8565b915061239182612350565b602082019050919050565b600060208201905081810360008301526123b581612379565b9050919050565b60006060820190506123d16000830186611c9d565b6123de6020830185611c9d565b6123eb6040830184611c9d565b949350505050565b7f4e6f206173736574730000000000000000000000000000000000000000000000600082015250565b6000612429600983611ad8565b9150612434826123f3565b602082019050919050565b600060208201905081810360008301526124588161241c565b9050919050565b7f4e487b7100000000000000000000000000000000000000000000000000000000600052603260045260246000fd5b7f5a65726f20746f6b656e00000000000000000000000000000000000000000000600082015250565b60006124c4600a83611ad8565b91506124cf8261248e565b602082019050919050565b600060208201905081810360008301526124f3816124b7565b9050919050565b7f5a65726f20776569676874000000000000000000000000000000000000000000600082015250565b6000612530600b83611ad8565b915061253b826124fa565b602082019050919050565b6000602082019050818103600083015261255f81612523565b9050919050565b7f4e487b7100000000000000000000000000000000000000000000000000000000600052601160045260246000fd5b60006125a082611bf1565b91506125ab83611bf1565b92508282019050808211156125c3576125c2612566565b5b92915050565b7f57656967687473206d7573742073756d20746f20313030303020627073000000600082015250565b60006125ff601d83611ad8565b915061260a826125c9565b602082019050919050565b6000602082019050818103600083015261262e816125f2565b9050919050565b600061264082611bf1565b915061264b83611bf1565b925082820261265981611bf1565b915082820484148315176126705761266f612566565b5b5092915050565b7f4e487b7100000000000000000000000000000000000000000000000000000000600052601260045260246000fd5b60006126b182611bf1565b91506126bc83611bf1565b9250826126cc576126cb612677565b5b828204905092915050565b7f416c726561647920696e697469616c697a656400000000000000000000000000600082015250565b600061270d601383611ad8565b9150612718826126d7565b602082019050919050565b6000602082019050818103600083015261273c81612700565b9050919050565b7f546f6b656e20616c7265616479206d696e746564000000000000000000000000600082015250565b6000612779601483611ad8565b915061278482612743565b602082019050919050565b600060208201905081810360008301526127a88161276c565b9050919050565b60006060820190506127c46000830186611efe565b6127d16020830185611c9d565b6127de6040830184611c9d565b94935050505056fea2646970667358221220ed292a7b57ba7412eb7b9a77f7f6d326735b226f9d0aa1fef5c01ce5528304ec64736f6c63430008180033",
  "linkReferences": {},
  "deployedLinkReferences": {}
}